:020000040800F2
:10000000B8080024B1020008355B0008F137000889
:10001000055B0008F9080008E56A00080000000018
:10002000000000000000000000000000BD5D0008AE
:10003000FB080008000000005D5B0008BF5D0008D1
:10004000CB020008CB020008CB020008CB0200085C
:10005000CB020008CB020008FD080008CB02000814
:1000600017090008310900084B090008CB020008F5
:10007000CB020008CB020008CB020008CB0200082C
:10008000CB020008CB020008CB020008CB0200081C
:10009000CB020008CB020008CB020008CB0200080C
:1000A000CB020008CB020008CB020008CB020008FC
:1000B000CB020008CB020008CB020008CB020008EC
:1000C000CB020008CB020008CB020008CB020008DC
:1000D000CB0200088D6A0008CB020008B96A00084C
:1000E000CB020008415D000800000000CB020008C0
:1000F000CB020008CB020008CB020008CB020008AC
:10010000CB020008CB020008CB020008CB0200089B
:10011000CB020008CB020008155F0008CB020008E4
:10012000CB020008CB020008CB020008CB0200087B
:10013000CB020008CB020008CB020008CB0200086B
:1001400000000000000000000000000000000000AF
:10015000CB020008CB020008CB020008CB0200084B
:10016000CB020008CB020008CB020008CB0200083B
:10017000CB020008CB020008CB0200080000000000
:10018000CB020008CB020008CB020008CB0200081B
:10019000CB020008CB020008CB020008CB0200080B
:1001A000CB020008CB020008CB020008CB020008FB
:1001B000CB020008CB020008CB020008CB020008EB
:1001C000CB020008CB020008CB020008CB020008DB
:1001D000CB020008CB020008CB020008CB020008CB
:1001E000CB020008CB020008CB020008CB020008BB
:1001F000CB020008CB020008CB020008CB020008AB
:10020000CB020008CB020008CB020008CB0200089A
:10021000CB020008CB020008CB020008CB0200088A
:10022000CB020008CB020008CB020008000000004F
:10023000CB020008CB02000800000000CB0200083F
:10024000CB020008CB020008CB020008CB0200085A
:10025000CB020008CB020008CB020008CB0200084A
:10026000CB020008CB020008CB020008CB0200083A
:10027000CB020008CB020008CB02000800000000FF
:10028000CB02000800000000CB02000800000000C4
:1002900000000000CB020008DFF810D000F080FA68
:1002A0000048004749740008AFF30080B8080024F4
:1002B0000648804706480047FEE7FEE7FEE7FEE700
:1002C000FEE7FEE7FEE7FEE7FEE7FEE7915E0008D9
:1002D000990200082DE9F05F0546002092469B46F2
:1002E00088460646814640241BE02846414647464C
:1002F000224600F08CF853465A46C01A914110D35A
:1003000011461846224600F073F82D1A67EB0108D3
:100310004F4622460120002100F06AF817EB000941
:100320004E41201EA4F10104DFDC484631462A4636
:100330004346BDE8F09F10B5431A934209D2831893
:10034000881803E010F8011D03F8011D521EF9D2B0
:1003500010BD40EA01039B0703D009E008C9121F42
:1003600008C0042AFAD203E011F8013B00F8013B6F
:10037000521EF9D210BDD2B201E000F8012B491E85
:10038000FBD270470022F6E710B513460A46044632
:100390001946FFF7F0FF204610BD421C10F8011B64
:1003A0000029FBD1801A704710B5002200E0521CD2
:1003B000835C8C5CA34201D1002BF8D1D8B2E1B2AE
:1003C000401A10BD30B50B46014600202022012402
:1003D00009E021FA02F59D4205D303FA02F5491B13
:1003E00004FA02F52844151EA2F10102F1DC30BD29
:1003F000202A04DB203A00FA02F1002070479140E5
:10040000C2F1200320FA03F3194390407047202AD9
:1004100004DB203A21FA02F00021704721FA02F3AE
:10042000D040C2F1200291400843194670472DE99F
:10043000FE4F804681EA0300C00F0C46009021F079
:10044000004123F00045B8EB0200A94105D2404627
:10045000214690461C460B46024623F000401043BE
:1004600047D0270DC7F30A00C3F30A510290401A80
:10047000019040286BDAC3F3130040F4801B00980E
:10048000924620B10023D2EB030A63EB0B0B0198D9
:100490005946C0F140025046FFF7AAFF06460D46F6
:1004A00050465946019A00F08DF910EB0800614161
:1004B000002487EA115284EAE7731A4340D0009A75
:1004C00062B3019A012A4FEA075215DC001B61EB67
:1004D00002014FF0004202EA0752CDE90042001C3F
:1004E00041F5801132462B4600F08DF903B0BDE88E
:1004F000F08F40462146F9E7001B61EB0201001C2A
:1005000041F5801300185B412018A2F5001747EB56
:10051000030140EAD570B6196D4111E06D084FEA4C
:10052000360645EAC0754FEA0752001B61EB02012F
:10053000001C41F5801149084FEA30000019514173
:1005400032462B4603B0BDE8F04F00F04DB900989D
:10055000012240000023D0EB020263EBE07300981D
:1005600021464FEAE074B8EB000061EB0401E9E7D3
:1005700083F000435BE781F0004158E72DE9FE4F2F
:1005800081EA030404F0004421F0004100944FF09C
:10059000000B23F0004350EA01045ED052EA03044A
:1005A0005BD0C3F30A54C1F30A552C44A4F2F334CC
:1005B0000194A0FB0254C1F3130141F48011C3F371
:1005C000130343F4801301FB024400FB034E840A2F
:1005D000970A44EA815447EA8357A4FB07680295C7
:1005E0008D0A05FB07854FEA932C04FB0C54270565
:1005F000029D4FEA065847EA1637B5EB08056EEB41
:10060000070C870E920E47EA811742EA8312A7FB76
:100610000201B6EB0B0164EB00042B0D43EA0C3333
:100620005E1844EB1C50DA465146E7FB0201C5F365
:1006300013044FEA0B3343EA14534FEA0432019C8C
:1006400043EA0603A4F10C040294009CCDE900B433
:1006500000F0D9F803B0BDE8F08F00200146F9E7BB
:100660002DE9F04D81EA030404F0004B21F0004530
:1006700014464FF0000A23F0004150EA050220D052
:1006800054EA01021DD0C5F30A570246C5F313030D
:10069000C1F31300C1F30A5640F4801543F48013EC
:1006A000A7EB0608101BD64608F2FD3873EB0500D1
:1006B00002D308F1010801E092185B41B8F1000F84
:1006C00003DA00200146BDE8F08D00204FF48011D0
:1006D000064684460EE0171B73EB050705D3121B75
:1006E00063EB050306434CEA010C49084FEA30006E
:1006F00092185B4150EA0107EDD152EA030012D093
:1007000082EA040083EA0501084305D0101BAB41CF
:1007100006D20122002306E000224FF0004302E04F
:100720006FF0010253101AEB06004CEB085110EB6E
:100730000A0041EB0B01BDE8F04D00F055B8C1F3E4
:100740000A52C1F3130140F2FF3341F480119A427F
:1007500002DA00200146704740F233439A42A2F287
:10076000334202DC5242FFF752BEFFF741BE0000A7
:1007700030B5041E71F1000404DB4FF00044404228
:1007800064EB0101141E73F1000405DB1C464FF0FD
:100790000043524263EB0403994208BF904230BDCC
:1007A000064C074D06E0E06840F0010394E80700BE
:1007B00098471034AC42F6D3FFF772FD787D0008FD
:1007C000987D0008202A06DBCB17203A41FA02F078
:1007D00043EAE07306E041FA02F3D040C2F120029E
:1007E000914008431946704710B5141E73F1000478
:1007F00008DA401C41F1000192185B411A4301D113
:1008000020F0010010BD2DE9F04D92469B4611B13C
:10081000B1FA81F202E0B0FA80F220329046FFF79E
:10082000E7FD04460F4640EA0A0041EA0B01534641
:100830005A46084313D0114653EA010019D0C8F1B3
:1008400040025046FFF7E3FD05460E465046594626
:100850004246FFF7CDFD084305D0012004E02046C5
:100860003946BDE8F08D0020054346EAE0762C438A
:1008700037430A986305E40AA0EB08000022FD0A4A
:1008800044EA47540A3002D500200146E9E7010551
:1008900010196941DDE9084500196941BDE8F04DCD
:1008A000A2E770B58C1810F8015B15F0070301D1B1
:1008B00010F8013B2A1106D110F8012B03E010F8C3
:1008C000016B01F8016B5B1EF9D12B0705D40023E6
:1008D000521E0DD401F8013BFAE710F8013BCB1A88
:1008E000921C03E013F8015B01F8015B521EF9D57D
:1008F000A142D8D3002070BDFEE7704710B54FF07D
:10090000B044D4F88800C00704D003F057F90120A0
:10091000C4F8880010BD10B54FF0B044D4F888007A
:10092000400704D503F090F90420C4F8880010BDF6
:1009300010B54FF0B044D4F88800000704D503F098
:1009400059F90820C4F8880010BD10B54FF0B04424
:10095000D4F88800C00604D503F03EF91020C4F88E
:10096000880010BD304810B586B0016841F0010123
:100970000160016801F001010591016841F0100179
:100980000160016801F010010591016841F010015A
:100990000160016801F010010591016841F010014A
:1009A00001600068694600F0100005900120009089
:1009B0001E480190002002901D4800F051F90022CD
:1009C0000620114600F0EAFC062000F0D9FC194C84
:1009D000042069460090204600F042F900220820D9
:1009E000114600F0DBFC082000F0CAFC082120467C
:1009F0000091694600F034F900220920114600F008
:100A0000CDFC092000F0BCFC102120460091694675
:100A100000F026F900220A20114600F0BFFC0A204F
:100A200000F0AEFC06B010BDE04402580000111109
:100A3000000002580010025870B5B3F5804F05D081
:100A40006FF0704140F82210002070BD50F8223045
:100A5000084C2340D1E900458E8944EA05148D688D
:100A600089692D0245EA06452C430C431C4340F896
:100A70002240E9E70000F0CFF0B50C6850F82450B0
:100A80001A4A1540D1E90123D1E903671A433E43CD
:100A900032434E6932438E693243CE6932430E6A25
:100AA00032434E6A32438E6A3243CE6A32430E6B11
:100AB00032438E6B32434E6B32432A43082B01D1B3
:100AC00042F0400240F824200A6BB2F5801F05D1A5
:100AD0000A684AB1026842F4801202600A681AB1D8
:100AE0000268496B0A4302600020F0BD8004C0FF29
:100AF00000EB8202F0B553688E8903F04044D1E9DF
:100B0000003543EA05138D682D0245EA06450E8A35
:100B10002B430D4D05EB065633430E7D6F0107EB5E
:100B2000066633438E693343234353600268D2021F
:100B300007D54268098A22F4700205EB015111437E
:100B400041600020F0BD00000000F0FF2DE9F843F7
:100B50004FF49C78994616460D46089F04464B462E
:100B6000294616F8012B2046009704F0F8FF44456B
:100B700002D20834A4B207E0E02D4FF0000402D204
:100B80001035ADB200E0002530780028E7D1BDE88F
:100B9000F8830000034A02EB01111022A1F5007155
:100BA000FFF7C9BB6077000810B528B190F8351081
:100BB000022903D080214165012010BD1D4A4FF458
:100BC000956301688C189C4207D8042280F8352070
:100BD000086820F00100086029E00C6824F00E0489
:100BE0000C6001680A440A6822F001020A60016E82
:100BF0000A6822F480720A6090F85C30012202FADE
:100C000003F10D4B1960D0E919134B60C16E31B17E
:100C10000B6823F480730B60D0E91C134B60002138
:100C200080F8341080F83520016D01B1884700202C
:100C300010BD0000F0FFFDBF0454025870B504461B
:100C400000F008F90546601C02D00448007804440E
:100C500000F000F9401BA042FAD370BD0802002446
:100C60002DE9F84F6C4C00224FF0B04A4FF0010BC9
:100C70004FF0030E4FF00F090B680BFA02F73B40E1
:100C8000BB4270D14D68022D01D0122D12D1D50872
:100C900000EB850CDCF820605507ED0E09FA05F82D
:100CA00026EA0806D1F8108008FA05F848EA06088E
:100CB000CCF82080D0F80080560091F804C00EFADD
:100CC00006F50CF0030C28EA05080CFA06FC4CEAC1
:100CD000080CC0F800C0D1F804C0BCF1010F08D066
:100CE000BCF1020F05D0BCF1110F02D0BCF1120F04
:100CF00016D1D0F808C0D1F80C802CEA050C08FAFF
:100D000006F848EA0C08C0F80880D0F804C02CEABD
:100D1000070C0F79C7F30017974047EA0C074760A5
:100D2000C768AF438D68B5403D43C5604D68ED0071
:100D30006BD53A4D2E6846F002062E602D6822F0E3
:100D4000030606F1B04605F002050095D6F808C482
:100D500095072F0F09FA07F52CEA050C304DA8422C
:100D600002D100252EE050E02E4DA84201D10125F0
:100D700028E02D4DA84201D1022523E02B4DA842A9
:100D800001D103251EE02A4DA84201D1042519E016
:100D9000284DA84201D1052514E0274DA84201D1D4
:100DA00006250FE0254DA84201D107250AE0244D74
:100DB000A84201D1082505E0224DA84201D109250C
:100DC00000E00A25BD4045EA0C05C6F80854256830
:100DD0004E689D43F60300D51D43256065684E6847
:100DE0009D43B60300D51D436560DAF800505646B2
:100DF0004F689D43FF0200D51D43356075684F68FD
:100E00009D43BF0200D51D437560521C102AFFF49C
:100E100033AFBDE8F88F000080000058F44402585A
:100E2000000002580004025800080258000C025842
:100E3000001002580014025800180258001C0258F2
:100E400000200258002402580AB1018370474183F0
:100E500070470000014880687047000008020024C5
:100E600090F84120202A24D190F84020012A20D057
:100E7000012280F84020242280F841200268136873
:100E800023F0010313600268136823F48053136096
:100E9000026813680B43136001680A6842F001029C
:100EA0000A60202180F84110002180F84010084697
:100EB00070470220704790F84100704770B50400F9
:100EC00004D094F84100002510B106E0012070BD67
:100ED000204684F8405000F0B9F9242084F84100FD
:100EE0002068016821F0010101602168606820F03C
:100EF000706008612068816821F400418160E068C9
:100F00000128A06807D040F4044021688860E068A8
:100F1000022803D006E040F40040F6E721684FF4D1
:100F20000060486020684168114A114341602068B0
:100F3000C16821F40041C160D4E904010843A169FA
:100F400040EA01202168C860D4E90701084321680C
:100F500008602068016841F001010160656420209B
:100F600084F84100256384F84250002070BD0000E1
:100F7000008000022DE9FF4F83B0044690F8410045
:100F80009A469346DDE91087DDF84890202874D111
:100F90005FEA080072D0002F70D094F8400001285A
:100FA0006BD0012084F84000FFF754FF0122054672
:100FB00019230090D103204602F068FD002874D167
:100FC000222084F84100402084F842000026666414
:100FD000C4F824806785534666635A4604992046C0
:100FE000CDE9009502F0CCFC28B1606C84F840603B
:100FF00004285ED059E0618DFF2738484FF0807893
:10100000FF294FF0007A04D927853A4643460090DD
:1010100005E0618D53462185009094F828202046F4
:10102000049902F01DFD00224B4604212046009544
:1010300002F02CFDC8BB2068416A606A421C6262F3
:101040000170208D401E0004000C2085618DA1F1EF
:10105000010161851DD1608DD8B100224B468021F0
:101060002046009502F012FDF8B9608DFF2806D9E0
:1010700027853A464346009607E02CE019E0608D4C
:1010800053462085009694F828202046049902F0C3
:10109000E7FC608D0028C6D12A464946204602F06A
:1010A0001EFD40B1606C042803D0032007B0BDE8EA
:1010B000F08F0120FAE720682021C1612068426892
:1010C000074B1A40426084F8411084F842600020C7
:1010D00084F84060EAE70220E8E70000002400808E
:1010E00000E800FE2DE9FF4F83B0044690F8410070
:1010F0009A469346DDE91087DDF84890202870D1A4
:101100005FEA08006ED0002F6CD094F840000128F0
:1011100067D0012084F84000FFF79CFE01220646BC
:1011200019230090D103204602F0B0FC002854D1CE
:10113000212084F84100402084F8420000256564A5
:10114000C4F824806785534665635A46049920464F
:10115000CDE9009602F04CFC28B1606C84F8405058
:1011600004286CD039E0608DFF274FF08078FF288D
:101170004FF0007A04D927853A464346009505E0AA
:10118000608D53462085009594F8282020460499C8
:1011900002F066FC32464946204602F0C8FC18B10F
:1011A000606C04284BD018E0606A411C61622168C1
:1011B00000788862608D401E6085208D401E00048E
:1011C000000C208521D1608DF8B100224B46802192
:1011D0002046009602F05AFC28B1032007B0BDE873
:1011E000F08F2EE02BE0608DFF2804D927853A464A
:1011F0004346009505E0608D53462085009594F8A0
:1012000028202046049902F02BFC608D0028C1D1D3
:1012100032464946204602F062FC0028C0D12068D0
:101220002021C16120684268074B1A40426084F85F
:10123000411084F84250002084F84050CEE701204D
:10124000CCE70220CAE7000000E800FE704700007B
:1012500002488168027811448160704708020024C6
:10126000032010B500F0BAF8002000F007F808B12C
:10127000012010BD00F04CF8002010BD70B50D4DE0
:1012800004464FF47A712878B1FBF0F00A490968F6
:10129000B1FBF0F001F05FFD48B9102C07D200223D
:1012A0002146501E00F07AF800206C6070BD0120CD
:1012B00070BD00000802002414020024134A417883
:1012C0001160111D03780A1DE3B143680B60017BB7
:1012D000C37A090741EA0361837A41EAC341437B48
:1012E00041EA8341837B41EA4341C37B41EA0341B5
:1012F000437A41EA0321037A007841EA430101433A
:1013000011607047002008601060704798ED00E0A1
:101310001A4808B5016841F002010160006800F058
:1013200002000090032000F059F800226FF00B003B
:10133000114600F033F800226FF00A00114600F069
:101340002DF800226FF00900114600F027F8002266
:10135000501F114600F022F80022101F114600F025
:101360001DF80022901E114600F018F80022BDE87A
:101370000840501E114600F011B80000F444025815
:10138000002809DB012100F01F0291404009800084
:1013900000F1E020C0F80011704700000E4BF0B4DF
:1013A0001B68C3F30223C3F10704042C00D90424EF
:1013B0001D1D072D01D2002300E0DB1E012606FAC9
:1013C00004F56D1E0D409D409E40761E164045EA78
:1013D0000601F0BC05F0ACBB0CED00E0064A00F0E5
:1013E000070110684FF6FF03184040EA0120034947
:1013F00008431060704700000CED00E00000FA05A3
:1014000010B500F021FF084909684FF4807292FA84
:10141000A2F201F47061B2FA82F2D140034A515C47
:10142000C8400349086010BD18440258687D000890
:101430001402002410B500F0C1FE0749096810220B
:1014400092FAA2F201F07001B2FA82F2D140034A9C
:10145000515CC84010BD000020440258687D00085F
:10146000364930B50A68096812F00302344BC1F3FB
:1014700005311B68334C03F010032468DFED320A9A
:10148000B7EE001AC4F3CC0414FB03F300EE103AD9
:101490002E4BB8EE400A07D02D4C012A01D0022A6B
:1014A0004AD0B4FBF1F10BE0244C283C22689506AD
:1014B000284A03D52468C4F3C104E240B2FBF1F129
:1014C00001EE901A1968B8EE612AC1F3080101EE25
:1014D000901A1968F8EE611A40EE201A31EE810A6E
:1014E00022EE000AC1F34621491C00EE901AF8EEE4
:1014F000600A80EE201AFCEEC10AC0ED000A1968ED
:10150000C1F30641491C00EE901AF8EE600A80EE25
:10151000201AFCEEC10AC0ED010A1968C1F3066188
:10152000491C00EE901AF8EE600A80EE201ABCEE1C
:10153000C10A80ED020A30BD074ABFE728440258BD
:101540002C4402583C4402580000003938440258E8
:1015500000093D000090D00300127A00364930B5F2
:101560000A68096812F00302344BC1F305511B6885
:10157000334C03F480732468DFED320AB7EE001AAF
:10158000C4F3CC0414FB03F300EE103A2E4BB8EE78
:10159000400A07D02D4C012A01D0022A4AD0B4FBC0
:1015A000F1F10BE0244C283C22689506284A03D52B
:1015B0002468C4F3C104E240B2FBF1F101EE901AD9
:1015C0001968B8EE612AC1F3080101EE901A196892
:1015D000F8EE611A40EE201A31EE810A22EE000A7E
:1015E000C1F34621491C00EE901AF8EE600A80EE25
:1015F000201AFCEEC10AC0ED000A1968C1F30641C9
:10160000491C00EE901AF8EE600A80EE201AFCEEFB
:10161000C10AC0ED010A1968C1F30661491C00EE58
:10162000901AF8EE600A80EE201ABCEEC10A80ED36
:10163000020A30BD074ABFE7284402582C4402582A
:1016400044440258000000394044025800093D005B
:101650000090D00300127A002DE9F84F044600688C
:101660000025FC4FDFF8F0832E46010104F1240031
:10167000009023D5606E50B1B0F5801F0CD0B0F54E
:10168000001F11D0B0F5401F23D0012515E03868A8
:1016900040F4003038601CE0386840F400103860D6
:1016A000201D04F085FA06E0386840F0807038604C
:1016B000009804F0E1FA05000BD02E462088C00502
:1016C00029D5606D052824D2DFE800F00C1119211E
:1016D0002100D8F80010626E21F440111143C8F8BF
:1016E0000010EBE7386840F4003038600FE03868ED
:1016F00040F400203860201D04F05AFA06E03868F3
:1017000040F480003860009804F0B6FA05466DB1E8
:1017100000E001252E43208880052ED5A06D80286D
:1017200021D00CDC90B140280ED114E0D8F8001084
:10173000626D21F007011143C8F80010EBE7C028E3
:1017400019D0B0F5807F16D0012515E0386840F437
:10175000003038600FE0386840F400203860201D09
:1017600004F026FA06E0386840F4800038600098FB
:1017700004F082FA054685B12E432088DFF8DC921A
:10178000400532D5D4F8A400B0F5800F23D00DDC8D
:10179000A0B1B0F5001F0FD115E0D8F80010A26D70
:1017A00021F4E0711143C8F80010E6E7B0F5C00F6E
:1017B00019D0B0F5000F16D0012515E0386840F4B7
:1017C000003038600FE0386840F400203860201D99
:1017D00004F0EEF906E0386840F4800038600098C4
:1017E00004F04AFA054675B12E432088000533D52A
:1017F000D4F8A800B0F1007F24D00EDCA8B1B0F17D
:10180000807F10D116E0D9F80010D4F8A42021F47C
:1018100060011143C9F80010E7E7B0F1407F19D02B
:10182000B0F1806F16D0012515E0386840F4003023
:1018300038600FE0386840F400203860201D04F064
:10184000B7F906E0386840F480003860009804F08A
:1018500013FA05466DB12E432068800122D5A06C95
:10186000F0B110280FD0202812D0302818D0012530
:1018700017E0D9F80010D4F8A82021F0E061114356
:10188000C9F80010E8E7386840F40030386007E035
:10189000386840F400103860201D04F089F90546CE
:1018A0006DB12E432088C00431D5E06DB0F5005FE6
:1018B00023D00DDCA0B1B0F5805F0FD115E06648F4
:1018C000001F0168A26C21F0300111430160E9E7BB
:1018D000B0F5405F19D0B0F5804F16D0012515E066
:1018E000386840F4003038600FE0386840F4002079
:1018F0003860201D04F05CF906E0386840F4800090
:101900003860009804F0B8F9054685B12E43208868
:1019100080042FD5206EB0F5403F29D010DC38B3BD
:10192000B0F5803F14D0B0F5003F0FD118E0D8F8E3
:101930000010E26D21F4E0411143C8F80010E6E721
:10194000B0F5802F14D0B0F5A02F11D0012510E0F4
:10195000386840F480103860201D04F029F906E052
:10196000386840F400003860009804F085F90546B6
:101970008DB12E432088400430D5D4F8AC00B0F1AE
:10198000405F29D010DC38B3B0F1805F14D0B0F1E3
:10199000005F0FD118E0D8F80010226E21F4E0218A
:1019A0001143C8F80010E5E7B0F1804F14D0B0F152
:1019B000A04F11D0012510E0386840F48010386045
:1019C000201D04F0F5F806E0386840F400003860A7
:1019D000009804F051F905466DB12E4320880004AB
:1019E00022D5E06EF0B1B0F1805F0ED0B0F1005FB3
:1019F00010D0012517E0D9F80010D4F8AC2021F060
:101A0000E0411143C9F80010E8E7386840F40030BD
:101A1000386007E0386840F480103860201D04F01A
:101A2000C7F805466DB12E432068C00127D5606C0C
:101A300018B3012814D0022817D003281DD001257F
:101A40001CE0D8F80010E26E21F040511143C8F8B4
:101A50000010E9E72C4402585044025858440258F8
:101A6000386840F40030386007E0386840F400100F
:101A70003860201D04F09CF8054675B12E4320689F
:101A8000DFF8E8B340024FD5F948016841F48071AE
:101A90000160FFF7DFF982460EE0F4483C30016850
:101AA000626C21F0030111430160E8E7FFF7D2F90E
:101AB000A0EB0A0064282ED8ED480068C005F5D5D3
:101AC00055BBEA4860300068B4F8B01000F44070CC
:101AD00001F4407188420DD0E4486030016802682A
:101AE00021F4407142F480320260026822F48032B4
:101AF00002600160D4F8B000B0F5807F23D1FFF719
:101B0000A9F9824609E0FFF7A5F9A0EB0A0141F225
:101B10008830814201D9032505E0D448603000684F
:101B20008007F0D57DB12E432078DFF848A3C007A9
:101B300043D0A06F18283ED026DC98B3082829D0BF
:101B4000102825D12FE0D4F8B000C0F301210329DB
:101B50000FD0DBF8001021F47C51CBF80010C54801
:101B60001C300168B4F8B020C2F30B0211430160CD
:101B7000DAE7DBF80020C04B22F47C5203EA1010B5
:101B80000243CBF80020EAE7202814D0282812D0FE
:101B9000012511E0386840F480103860201D04F001
:101BA00007F807E007E0386840F400003860009864
:101BB00004F062F805465DB12E432078800724D5F5
:101BC000606F06281FD2DFE800F01C0C141C1C1CE0
:101BD000DAF80010A26F21F038011143CAF80010A2
:101BE000EBE7386840F480103860201D03F0E0FF18
:101BF00006E0386840F400003860009804F03CF8D3
:101C0000054675B100E001252E432078400725D513
:101C1000D4F8900006281FD2DFE800F01C0C141C3A
:101C20001C1CDAF80010626F21F007011143CAF89A
:101C30000010EAE7386840F480103860201D03F097
:101C4000B7FF06E0386840F400003860009804F000
:101C500013F805469DB100E001252E43207880064B
:101C600031D5D4F88C00B0F1405F2AD011DC40B3FC
:101C7000B0F1805F15D0B0F1005F10D119E0D9F854
:101C80000010D4F8902021F007011143C9F800108A
:101C9000E4E7B0F1804F14D0B0F1A04F11D001258E
:101CA00010E0386840F400203860201D03F080FF09
:101CB00006E0386840F080703860009803F0DCFF80
:101CC00005468DB12E432078400631D5D4F89800D2
:101CD000B0F5406F2AD011DC40B3B0F5806F15D05D
:101CE000B0F5006F10D119E0DAF80010D4F88C20AC
:101CF00021F0E0411143CAF80010E4E7B0F5805F3D
:101D000014D0B0F5A05F11D0012510E0386840F480
:101D100000203860201D03F04BFF06E0386840F0DB
:101D200080703860009803F0A7FF05468DB12E4300
:101D30002078000631D5D4F89C00B0F5C04F2AD0E9
:101D400011DC40B3B0F5005F15D0B0F5804F10D175
:101D500019E0D9F80010D4F8982021F4E05111438B
:101D6000C9F80010E4E7B0F5004F14D0B0F5204FEB
:101D700011D0012510E0386840F400203860201DA3
:101D800003F016FF06E0386840F080703860009875
:101D900003F072FF054665B32E43207800070BD58C
:101DA000D4F88000B0F5805F2DD0DAF8002022F45E
:101DB00040520243CAF800202078C0060BD5D4F860
:101DC0009400B0F5807F26D0D9F8002022F440722C
:101DD0000243C9F800202068000336D5D4F8A000DB
:101DE00008B3B0F5803F26D0B0F5003F2BD00125D9
:101DF0002AE0D9F80010D4F89C2021F46041114366
:101E0000C9F80010C9E7009803F036FF386840F0C1
:101E100080703860D0E7009803F02EFF386840F0FB
:101E200080703860D7E7386840F400203860201DA3
:101E300003F0BEFE06E0386840F08070386000981D
:101E400003F01AFF0546CDB12E43206840032ED57E
:101E5000D4F88400B0F5801F1AD0B0F5001F1CD054
:101E6000B0F5401F21D0012520E0000010440258A9
:101E70000048025854440258CFFFFF00D9F8001020
:101E8000D4F8A02021F440311143C9F80010DCE758
:101E9000386840F40030386007E0386840F40000EB
:101EA0003860009803F0E8FE054655B12E432068DF
:101EB000C0031FD5E06C70B1B0F5803F10D0012594
:101EC00017E0DAF80010D4F8842021F4401111430F
:101ED000CAF80010EBE7386840F40030386007E0DB
:101EE000386840F400103860201D03F061FE05469C
:101EF000DDB12E432068800007D5386840F080703F
:101F00003860009803F0B8FE0643206880031AD5B5
:101F1000E06FB0B1B0F5807F0FD0B0F5007F10D08A
:101F2000B0F5407F0DD001250CE02D480168E26C32
:101F300021F4803111430160DCE7386840F400305F
:101F40003860EDB32E432068C00207D5D8F80010E2
:101F5000226F21F000411143C8F800102068C00032
:101F600008D5DBF80010D4F8B42021F480411143E7
:101F7000CBF800102068800207D5D8F80010A26EB8
:101F800021F080711143C8F80010206840000CD582
:101F9000DBF8001021F40041CBF80010DBF8001052
:101FA000D4F8B8201143CBF800102068002806DAD6
:101FB0000B480168226D21F040511143016000E09F
:101FC00003E05EB10120BDE8F88FDAF80010E26F9F
:101FD00021F440711143CAF80010B4E70020F2E781
:101FE0004C4402582DE9F047DFF8BC9104460E46F8
:101FF000D9F8000000F00700B0420CD2D9F8001068
:1020000021F007013143C9F80010D9F8000000F0B1
:102010000700B0427ED12078DFF89081800707D595
:10202000D8F80010E26821F00F011143C8F8001041
:102030002078C00762D0D8F80010A26821F470613F
:102040001143C8F8001059496068183902281CD09B
:1020500003281DD0096801281DD04907002960DA2E
:10206000524F083F396821F0070101433960FEF7FC
:10207000F1FE0546606841F28831022813D003283A
:102080001ED001288A4627D034E009688903E5E795
:1020900009688901E2E7C905E0E7FEF7DBFE411BBD
:1020A000514501D923E08A463868C0F3C2000228AE
:1020B000F3D123E0FEF7CEFE411B514501D916E0D6
:1020C0008A463868C0F3C2000328F3D116E0FEF751
:1020D000C1FE411B51450AD83868C0F3C20001282F
:1020E000F5D10BE0FEF7B6FE411B514502D90320A6
:1020F000BDE8F087386810F0380FF3D1D9F8001038
:10210000484601F00701B1420DD9016821F00701ED
:10211000314300E005E00160006800F00700B042D4
:1021200001D00120E4E72078400707D5D8F8001057
:10213000226921F070011143C8F8001020780107CE
:102140001B4805D50168626921F0700111430160E7
:102150002178C90605D50168A26921F4E06111431F
:1021600001602078800607D51149091D0868E269D9
:1021700020F070001043086000F066F8D8F80010F6
:102180004FF4807292FAA2F201F47061B2FA82F214
:10219000D140084A515CC840074908600020FFF759
:1021A0006DF80020A4E700000020005218440258F7
:1021B0001C440258687D00081402002410B5FFF783
:1021C0001FF908490968012292FAA2F201F00F01F1
:1021D000B2FA82F2D140044A515CC8400349086017
:1021E00010BD000018440258687D00081802002441
:1021F00010B5FFF7E3FF07490968102292FAA2F22F
:1022000001F07001B2FA82F2D140034A515CC84039
:1022100010BD00001C440258687D000810B5FFF78F
:10222000CDFF074909684FF4807292FAA2F201F4D7
:10223000E061B2FA82F2D140024A515CC84010BD5E
:102240001C440258687D00083548F0B50068364DDA
:1022500010F03801334809D00411082904D0C61001
:1022600010290BD018290BD02046F0BD296889060B
:10227000FBD52968C1F3C101C840F0BD3046F0BDAF
:10228000274918310A68096812F00302274BC1F385
:1022900005111B68264F03F001033F68DFED250A97
:1022A000B7EE001AC7F3CC0717FB03F300EE103AA2
:1022B000214BB8EE400A06D0012A01D0022A2BD0C9
:1022C000B4FBF1F008E02A68920603D52A68C2F34D
:1022D000C102D040B0FBF1F001EE900A1868B8EEF0
:1022E000612AC0F3080001EE900A1868F8EE611A3E
:1022F00040EE201A31EE810A22EE000AC0F3462099
:10230000401C00EE900AF8EE600A80EE201ABCEE47
:10231000C10A10EE100AF0BDB6FBF1F0DCE70000D8
:10232000104402580090D003004402582C44025834
:102330003444025800000039304402582DE9F04777
:1023400004460078DFF8F883DFF8F893FE4DC00705
:102350004CD0D8F800104046C1F3C20102291AD06F
:102360000068C0F3C200032805D1D9F8000000F0CE
:10237000030002280FD06068B0F5803F12D010B182
:10238000B0F5A02F18D0286820F480302860286885
:1023900020F4802009E02868800327D560680028A1
:1023A0007BD023E0286840F480302860606888B1E2
:1023B000FEF750FD064609E0286840F480202860BA
:1023C000F0E7FEF747FD801B642867D82868800384
:1023D000F7D50BE0FEF73EFD064604E0FEF73AFDBA
:1023E000801B6428F1D828688003F7D42078D74F61
:1023F000800767D5D8F8001040464FF47C3A11F0BA
:10240000380F13D00068C0F3C200032803D1D9F8F5
:10241000000080070AD0E068F0B3296821F01901B4
:1024200001432960FEF716FD064628E028684007AC
:1024300002D5E0680028B3D02868E16820F01900D0
:1024400008432860FEF706FD064604E0FEF702FD9D
:10245000801B0228B9D828684007F7D538689AFA4F
:10246000AAF22169B2FA82F220F47C30914008434A
:10247000386027E0FEF7EEFC801B0228A5D828680C
:102480004007F7D53868216920F47C329AFAAAF01F
:10249000B0FA80F0814002E004E0B9E002E10A43D2
:1024A0003A600FE0286820F001002860FEF7D2FCB7
:1024B000064604E0FEF7CEFC801B022885D828687B
:1024C0004007F7D42078C00648D5D8F80010404619
:1024D0004FF0F84AC1F3C201012915D00068C0F3DA
:1024E000C200032805D1D9F8000000F0030001283C
:1024F0000AD0E0690028286821D040F080002860D8
:10250000FEF7A8FC06460BE02868C0050BD5E0697D
:1025100080287DD107E0FEF79DFC801B022899D81A
:102520002868C005F7D538689AFAAAF2216AB2FA83
:1025300082F220F0F8409140084338600EE020F02D
:1025400080002860FEF786FC064604E0FEF782FC69
:10255000801B022892D82868C005F7D4207800078D
:1025600024D5784F60694C37002838680FD040F088
:1025700001003860FEF76EFC064604E0FEF76AFCD8
:10258000801B02289AD838688007F7D50EE020F023
:1025900001003860FEF75EFC064604E0FEF75AFCD8
:1025A000801B02287ED838688007F7D42078800600
:1025B00022D5A069002828680FD040F480502860F8
:1025C000FEF748FC064604E0FEF744FC801B0228A8
:1025D00068D828688004F7D50EE020F48050286081
:1025E000FEF738FC064604E0FEF734FC801B0228A8
:1025F00058D828688004F7D42078400747D5544F2E
:10260000386840F480703860FEF724FC064605E028
:10261000C4E0FEF71FFC801B642843D83868C0055F
:10262000F7D5484FA068483701280AD008B10528D7
:1026300013D0386820F001003860386820F00400BA
:1026400002E0386840F001003860A06841F2883A42
:1026500088B1FEF7FFFB064609E0386840F0040049
:102660003860EEE7FEF7F6FB811B51451AD8386853
:102670008007F7D50BE0FEF7EDFB064604E0FEF71A
:10268000E9FB811B51450DD838688007F7D4606A93
:10269000F0B3D8F80010C1F3C20103297ED002289C
:1026A000286800E07BE020F08070286003D0FEF70F
:1026B000D1FB044687E0FEF7CDFB064604E0FEF7BB
:1026C000C9FB801B02287BD828688001F7D4D9F881
:1026D000001040F2F3329143E26A41EA0211A26A29
:1026E0001143C9F8001094F834004FF4FE02400280
:1026F000A0F5007081B2208E401EC0F30800014397
:10270000208F401E02EA0040014394F83C0000E0A4
:102710005CE0401E120202EA0060014309480830F2
:102720000160031D19684FF6F872A06C914392FA8C
:10273000A2F2B2FA82F2904001431960014809E026
:1027400010440258284402580044025804440258D5
:1027500000480258001D0168226C21F00C01114351
:1027600001600168626C21F002011143016001689F
:1027700041F480310160016841F400310160016879
:1027800041F480210160016841F001010160286885
:1027900040F080702860FEF75DFB01E018E00FE07C
:1027A000044604E0FEF756FB001B022808D8286800
:1027B0008001F7D50AE0FEF74DFB001B022802D985
:1027C0000320BDE8F08728688001F4D40020F8E7F2
:1027D0000120F6E706480022202110B5FEF734FB61
:1027E00000220448BDE810404021FEF72DBB000048
:1027F000001002580014025806480122202110B58A
:10280000FEF722FB01220448BDE810404021FEF7FC
:102810001BBB000000100258001402584FF0B041DA
:1028200010B504464FF40030C1F88800216888686C
:10283000C0040BD5C868C00508D5C86800F0800082
:1028400060F4C070C8602046FFF7D6FF2168886832
:1028500080040BD5C868800508D5C86800F08000E2
:1028600060F42070C8602046FFF7B4FF012084F8B0
:10287000210010BD70B5040003D094F8210010B100
:1028800007E0012070BD002084F82000204600F001
:1028900045F8022084F821002168CA2048625320AC
:1028A00021684862204603F06DFAFF210028206865
:1028B00004D04162042084F82100E2E78268164BCC
:1028C0001A408260206882686368A5691A43236998
:1028D0002B431A4382602268E06810612068026915
:1028E000238942EA034202612068C26822F0800222
:1028F000C2602068C26C22F00302C264E2696069AF
:1029000002432068C36C1A43C264206841620120FC
:1029100084F82100002070BDBFFF8FFF00680449CC
:10292000884204D10348016841F4004101607047C6
:1029300000400058704402582DE9F05F044690F8BA
:1029400020000B46012849D04FF0010A84F820A04E
:10295000022084F821002068002680684FEA406049
:10296000DAB3002857DA187803F0F8F993F8200062
:1029700003F0F4F919789878DA7840EA0140597848
:10298000090241EA0241084393F8201040EA016538
:10299000D8692168054358695F680543986907430A
:1029A000CA2048622168532048624FF47A7B586AF3
:1029B0004FF0FF09B0F5807F206881682DD021F4A9
:1029C000007181602068C16801F0800161F42071AC
:1029D000C160FEF73FFA804654E002E00220BDE805
:1029E000F09F002800DBDE70187803F0C0F90204C5
:1029F000587803F0BCF942EA0022987803F0B7F95E
:102A00000243D87842EA004293F8200003F0AFF97D
:102A100042EA0065BCE7DE70A8E721F480718160BE
:102A20002068C16801F0800161F4C071C160FEF7E7
:102A300011FA804605E0FEF70DFAA0EB08005845B4
:102A400017D82068C068C007F5D02068C561206825
:102A500047642068816841F48071816020688168E2
:102A600041F480511FE0FEF7F5F9A0EB080058454E
:102A700008D92168C1F82490032084F8210084F843
:102A80002060ACE72068C0688007ECD5206805624C
:102A9000206887642068816841F400718160206843
:102AA000816841F4005181604FF0B040D0F880104F
:102AB00041F40031C0F88010016841F40031016038
:102AC0002168C1F8249084F821A0002084F82060B7
:102AD00085E700002DE9F047044690F820000B46FA
:102AE000012826D04FF0010984F82090022084F8B4
:102AF0002100587802B303F031F9987803F02EF9E9
:102B0000D978987840EA014558781978000240EA67
:102B1000413005432168CA20486253202168486239
:102B2000204603F02FF900264FF00408FF2758BB7A
:102B300019E00220BDE8F087C10603D500F0EF00E0
:102B40000A305870D87803F012F90204587803F06C
:102B50000EF942EA0022987803F009F90243187846
:102B600042EA4035D6E710480540206845602068B5
:102B7000C16821F08001C1602068806880060BD4A4
:102B8000204600F08FF838B12068476284F8218031
:102B9000012084F82060CDE72068476284F8219006
:102BA000002084F82060C5E73FFFFF002DE9F047D3
:102BB000044690F820000D46012812D04FF0010A7B
:102BC00084F820A0022084F8210020680026806874
:102BD0004FEA406042B100281ADA287803F0BEF8C4
:102BE00017E00220BDE8F087002800DBEE702878AF
:102BF00003F0BDF80204687803F0B9F842EA002255
:102C0000A87803F0B4F80243E87842EA00470AE003
:102C1000EE702978A87840EA01476878E9780002E0
:102C200040EA014007432168CA20486253202168D6
:102C30004862204603F0A6F84FF0FF084FF0040961
:102C4000E0B917480740206807602068816821F4D0
:102C500080218160D5E90310014320688268114317
:102C600081602068C16821F08001C16020688068AF
:102C700080060CD4204600F015F840B12168C1F858
:102C8000248084F82190012084F82060AAE721683C
:102C9000C1F8248084F821A0002084F82060A1E7F6
:102CA0007F7F7F0070B505460068C16821F0A001F4
:102CB000C160FEF7CFF84FF47A76044606E0FEF7DF
:102CC000C9F8001BB04201D9032070BD2868C06854
:102CD0008006F4D5002070BD70B5040015460E4680
:102CE00003D094F8450010B107E0012070BD00202A
:102CF00084F84400204600F021F8206804F108011F
:102D0000FDF7BAFEA26831462068FDF7F1FEE36ADE
:102D10002946D4E90102FDF78FFEA168206850F82A
:102D2000212042F0010240F821200348016841F0CF
:102D300000410160002070BD0040005270474FF01C
:102D4000E0210428086903D020F0040008617047DE
:102D500040F00400FAE7401EB0F1807F10B501D3C7
:102D6000012010BD4FF0E02460610F21601703F0D7
:102D7000DFFE0020A06107202061002010BD704709
:102D80007047000030B590F83C20012A1FD0012286
:102D900080F83C2003685A689D680E4CA34202D01C
:102DA0000D4CA34203D122F470044A68224322F05E
:102DB00070040A68896822435A6025F08004214320
:102DC00002689160002180F83C10084630BD022066
:102DD00030BD0000000001400004014010B50400B7
:102DE00003D094F83D0010B107E0012010BD002091
:102DF00084F83C00204600F00CF8022084F83D00E6
:102E00002068211D03F08CF8012084F83D0000208B
:102E100010BD70470168CA6842F00102CA600068CC
:102E2000018841F00101018000207047704770B5B2
:102E30000446006801694FF00005C943890715D4AD
:102E4000C168C943890711D4E91E016101202077B7
:102E5000206880698007204602D0FFF7E7FF04E082
:102E600000F0CEF8204600F08FF925772068016940
:102E7000C943490717D4C168C943490713D46FF040
:102E800004010161022020772068806910F4407FEE
:102E9000204602D0FFF7CAFF04E000F0B1F8204658
:102EA00000F072F9257720680169C943090716D433
:102EB000C168C943090712D46FF0080101610420F9
:102EC00020772068C0698007204602D0FFF7AEFF58
:102ED00004E000F095F8204600F056F925772068C8
:102EE0000169C943C90617D4C168C943C90613D4C7
:102EF0006FF010010161082020772068C06910F48C
:102F0000407F204602D0FFF791FF04E000F078F800
:102F1000204600F039F9257720680169C943C907BF
:102F200008D1C168C943C90704D1891E016120467F
:102F300000F058F9206801696FF08005C94309065F
:102F400007D4C168C943090603D405612046FFF7C9
:102F500016FF20680169C943C90507D4C168C94380
:102F6000090603D405612046FFF709FF20680169BF
:102F7000C943490609D4C168C943490605D46FF05D
:102F800040010161204600F047F920680169C9430A
:102F900089060BD4C168C943890607D46FF02001A4
:102FA00001612046BDE87040FFF7EABE70BD000039
:102FB00010B586B0044614216846FDF7E3F90D49C3
:102FC0002068884214D10C48016841F00201016078
:102FD0000068002100F002000590302000900220DF
:102FE000CDE90101CDE9031004486946FDF738FE3B
:102FF00006B010BD00040040E0440258000402582E
:10300000704770B5044690F83C000D4601280ED07C
:10301000012684F83C60022084F83D000C2A45D04B
:1030200007DC5AB1042A1BD0082A78D12CE00220F0
:1030300070BD102A4ED0142A71D15DE0206803F0D3
:1030400003F82068816941F0080181612068816985
:1030500021F004018161206881692A69114311E02E
:10306000206803F03FF82068816941F400618161C4
:103070002068816921F480618161206881692A6901
:1030800041EA022181614AE0206803F073F8206878
:10309000C16941F00801C1612068C16921F00401E2
:1030A000C1612068C1692A69114311E0206803F0F9
:1030B000A5F82068C16941F40061C1612068C16957
:1030C00021F48061C1612068C1692A6941EA022155
:1030D000C16124E0206803F0C7F82068416D41F029
:1030E000080141652068416D21F0040141652068B7
:1030F000416D2A69114311E0206803F0EBF8206864
:10310000416D41F4006141652068416D21F48061A9
:1031100041652068416D2A6941EA0221416584F8D0
:103120003D60002084F83C0070BD10B5040003D061
:1031300094F83D0010B107E0012010BD002084F894
:103140003C00204600F00CF8022084F83D00206886
:10315000211D02F0E5FE012084F83D00002010BD95
:1031600008B500680649884208D10648016841F060
:1031700002010160006800F00200009008BD00003C
:1031800000040040E84402587047000010B50122D6
:103190000446006802F04CFF0D48216881420BD0C4
:1031A0000C48814208D00C48814205D00B4881422E
:1031B00002D00B48814203D1486C40F4004048647F
:1031C0002068018841F001010180002010BD00004D
:1031D0000000014000040140004001400044014063
:1031E000004801400068094988420DD10849088813
:1031F000643800B20880002802DA40F2E930088022
:10320000B1F9000003490860704700000010004059
:1032100004020024380400407047704770470000E3
:1032200070B502680446D0691368916810F00F0FFA
:1032300064D0594D03F490760D40354376D0C507E0
:1032400007D0DD0505D501251562E26F42F00102C8
:10325000E267820708D5CA0706D0256802222A62DB
:10326000E26F42F00402E267420708D5CA0706D0BF
:10327000256804222A62E26F42F00202E267020736
:103280000ED503F0200201F080552A4352EAC172A4
:1032900006D0256808222A62E26F42F00802E2673F
:1032A000E26F002A3AD0800608D503F0200001F032
:1032B0008051084302D0204603F0ECF8E06F00078D
:1032C00003D42068806840062AD5204603F0D4F84D
:1032D0002068816849061ED5816821F0400181601F
:1032E000606FC0B12D490165606FFDF75DFC00287E
:1032F00014D0606F016DBDE870400847850615D594
:1033000003F0200501F0805635430FD02046BDE87C
:10331000704003F0BFB82046FFF780FF70BD05E0A6
:103320002046FFF77BFF0020E067F7E7C6024FF07B
:1033300020050CD54E020AD5E803106284F87950B6
:1033400084F87A502046BDE87040FFF766BF060655
:103350000AD503F0800601F400010E4304D0204694
:10336000BDE8704003F026BB41060BD5590609D5D0
:103370001168204621F04001116084F8795000F076
:1033800036FACBE70002C9D55800C7D5106820F03F
:1033900080401060C2E70000010000106564000872
:1033A00010B5040003D094F8790010B107E00120B3
:1033B00010BD002084F87800204600F027F8242073
:1033C00084F879002068016821F00101016020463D
:1033D00003F09CF80128EBD0606B10B1204602F09E
:1033E000AFFF2068416821F4904141602068816806
:1033F00021F02A0181602068016841F0010101602B
:103400002046BDE8104002F0FFBF00002DE9F0416A
:1034100086B0054614216846FCF7B4FF2E49002704
:10342000286802262D4C4FF00708884226D12CA090
:1034300003F05AFB29481030016841F01001016087
:10344000006800F010000590206840F00100206046
:103450002068694600F0010005904FF4C0608DE8D7
:10346000C1002248CDE90368FDF7FAFB00220121E3
:103470002520FDF793FF2520FDF782FF1C492868D2
:10348000884226D11BA003F02FFB144808300168A6
:1034900041F480210160006800F4802005902068DC
:1034A00040F0020020602068694600F002000590AC
:1034B0004FF440608DE8C1001148CDE90368FDF785
:1034C000CFFB002201212720FDF768FF2720FDF711
:1034D00057FF06B0BDE8F08100100140E0440258FB
:1034E00075617274313131310D0A000000000258EB
:1034F000004800407561727433333333330D0A0072
:103500000004025890F87A30202B4CD1B9B1B2B1F6
:1035100090F87830012B46D0012380F8783041664E
:10352000A0F86820A0F86A20FF228168B1F5805FCA
:1035300007D07F2351B1B1F1805F0CD010E00120A2
:103540007047016921B940F2FF1107E0016909BB29
:10355000A0F86C2004E00169E1B13F21A0F86C10F3
:103560000021C167222280F87A2080F87810016853
:103570008A6842F001028A6001680A6892000CD5EC
:103580000A6842F480720A600068816841F08051E4
:10359000816006E0A0F86C30E2E7086840F49070C3
:1035A0000860002070470220704700002DE9F041BC
:1035B0004D49054600684FF000084C4C4C4E88427F
:1035C0004CD1E3780D2B0DD00A2B0BD0082B3FD01C
:1035D000324648A1104603F097FAE17847A003F07D
:1035E00083FA35E0424946A003F07EFA404847A1FD
:1035F000FCF7DAFED8B13E4846A1FCF7D5FEC0B1D3
:103600003B4846A1FCF7D0FEA8B1394845A1FCF7DC
:10361000CBFE90B1364845A1FCF7C6FE052778B130
:103620003348C4F80880FCF7B8FE012134E00120DB
:1036300004E0022002E0032000E00420207000E00B
:1036400027702B48FCF7A9FE01462948FCF79AFE93
:10365000264901223648C91CFFF754FF354928681E
:1036600088423FD1217925A003F03EFA2379632BCC
:1036700015D01F4A1FA1104603F046FA21791FA05A
:1036800003F032FA26E0325CA368303A02FB0132E2
:1036900001EB8101A2604900401EF4D5D0E706206D
:1036A00020701348C4F80C80FCF777FE012108E075
:1036B000325CE368303A02FB013201EB8101E260E7
:1036C0004900401EF4D50A48FCF767FE0146084849
:1036D000FCF758FEBDE8F04104490A221648091DCE
:1036E000FFF710BFBDE8F08100100140000000248A
:1036F00020020024257325630000000025630000DC
:103700000D0A5B434D445D20257300007265626FB6
:103710006F7400006C656432000000006C656433F7
:10372000000000006C6564340000000049534C0048
:103730005403002400480040D40300242DE9F8433A
:10374000044690F879001E4617460D4620284CD1B5
:10375000C5B1BFB194F87800012846D0012084F8A3
:1037600078004FF00008C4F87C80212084F87900AC
:103770006034FDF76FFB278081466780603C4FF423
:10378000805718E00120BDE8F883B4F86200401EBD
:10379000A4F8620000224B4680212046009603F0E8
:1037A00043F9A0B9A068B84201D1206988B115F8E1
:1037B000010B21680885B4F862000028E5D10022D9
:1037C0004B4640212046009603F02EF930B10320ED
:1037D000D9E735F8020BC0F30800EAE7202084F8A7
:1037E0007900002084F87880CDE70220CBE770478D
:1037F000FEE710B500F016F8BDE8104000F092B8F2
:1038000001688A69D243920701D400228A62006863
:103810008169C943C90703D0816941F00101816110
:10382000704700001E4810B586B0016841F40011D1
:103830000160006800F4001005901948083801681C
:1038400041F002010160016801F002010591016887
:1038500041F00201016000686946124C00F002006C
:10386000059040200090122001900220039000203B
:103870000290042004902046FDF7F2F980212046B2
:1038800000916946FDF7ECF905484C38016841F0B4
:1038900080010160016821F08001016006B010BD67
:1038A000E8440258000402582DE9F041044600683B
:1038B00016460D468069C043C0062FD420274FF01E
:1038C000000820688069C043800610D5681CF8D0C5
:1038D00025B1FDF7BFFA801BA842F2D984F84170E8
:1038E00084F84280032084F84080BDE8F08121689C
:1038F0001020C8612068C7612046FFF781FF20685B
:103900004168074A114041600420606484F84170B6
:1039100084F84280012084F84080E6E70020E4E754
:1039200000E800FE0C4801220A4910B501600B496D
:1039300041600021C0E90212016141618161C16100
:103940000162FDF7BBFABDE8104003480021FDF716
:1039500087BA00000054004008030024734E604002
:103960003EB50C464FF47A7100922246CDE9013102
:10397000012301460148FDF7FDFA3EBD080300247E
:103980002DE9F843164604461848DAB2DDE90897EF
:10399000984600900023204600F062F83A464946D7
:1039A000204600F0C4F818B1606C04281CD018E060
:1039B000B8F1010FF5B209D02168300A88623A46A1
:1039C0004946204600F0B3F80028EDD12068856212
:1039D000002240214B462046009700F057F800286F
:1039E00000D00320BDE8F8830120FBE70020008021
:1039F0002DE9F8430446194816469846DAB2009075
:103A0000C3022046DDE9089700F02AF83A46494605
:103A1000204600F08CF818B1606C04281CD018E027
:103A2000B8F1010FF5B209D02168300A88623A4630
:103A30004946204600F07BF80028EDD120688562D9
:103A4000002280214B462046009700F01FF80028F6
:103A500000D00320BDE8F8830120FBE700200080B0
:103A6000F0B50068059C45684FF48066064FC1F3C9
:103A7000090106EA545641EA02413E431943B5435F
:103A800021430D434560F0BDFF63FF032DE9F04185
:103A90001C4617460E460546DDF8188013E0601CEC
:103AA00011D02CB1FDF7D6F9A0EB0800A0420AD93D
:103AB000202085F84100002085F8420085F840006C
:103AC0000320BDE8F0812868806936EA000004D050
:103AD0000020B842E3D00020F3E70120F9E770B5F9
:103AE00016460D4604461BE0324629462046FFF79F
:103AF000DBFE08B1012070BD25B1FDF7ABF9801BDD
:103B0000A8420DD9606C40F020006064202084F849
:103B10004100002084F8420084F84000032070BD7A
:103B200020688069C0438006DED4002070BD70B577
:103B300016460D4604461DE0324629462046FFF74C
:103B4000B3FE08B1012070BD681C13D025B1FDF78C
:103B500081F9801BA8420DD9606C40F020006064A0
:103B6000202084F84100002084F8420084F84000BE
:103B7000032070BD20688069C0438007DCD400202A
:103B800070BD00003EB50D4699B264240294012335
:103B9000CDE900212A4601460748FDF7A3FA04466D
:103BA0000548FDF788F92028FAD10348FDF783F985
:103BB0002028FAD120463EBD08030024054841785C
:103BC00021B1C1880A39C18001F09EBF00218170F6
:103BD00070470000000000240548417821B1C188E9
:103BE0000A31C18001F090BF01218170704700004F
:103BF0000000002470B5124C607808B101F09CFF01
:103C00000220A0700E481030FCF7C7FB0C4D20219D
:103C10001035284400F8011C05F58770FCF7BDFB42
:103C200028443C21282280F80D11012005A1607054
:103C300005F1E100FCF77FFBBDE8704001F080BDBD
:103C4000000000242000000070B50E4D6878B8B167
:103C500005F11000FCF7A1FB05F1100420443C2104
:103C600000F8011C04F58770FCF797FB2044202125
:103C700080F80D1100206870BDE8704001F060BD53
:103C800001F05AFF00000024F0B5264F0446264DEF
:103C900000234FF0DE4638780A2817D00B2815D0BD
:103CA0000E2832D00021212001F06CFD00212220BD
:103CB00001F068FD38780E2831D0222030804FF492
:103CC00096302C805B1C8342FBD3F0BD0021022088
:103CD00001F058FD0021032001F054FD00210420D3
:103CE00001F050FDEF21052001F04CFD00210620E0
:103CF00001F048FD0021072001F044FD01210820CA
:103D000001F040FD3F210920D2E72A203080002029
:103D1000288028802B2030800020288028802C209C
:103D2000CCE70000000200240008006F2C4830B5EA
:103D300087B0016841F480510160006800F4805050
:103D4000059027480C30016841F0080101600168C6
:103D500001F008010591016841F01001016001685E
:103D600001F010010591016841F040010160016816
:103D700001F040010591016841F002010160006815
:103D800002250124029400F0020005904CF23370E9
:103D90006946CDE900050C20CDE903501148FCF738
:103DA0005FFF4FF6807000900F486946FCF758FFA0
:103DB00041F2010000900D486946FCF751FFCDE942
:103DC0000245009469460194094C2046FCF748FFDF
:103DD000012220461146FDF737F807B030BD00003C
:103DE000D4440258000C025800100258001802581F
:103DF000000402581A491022184800B58FB0086014
:103E0000130218484860062088600020C860C1E995
:103E100004028861C861C1E908039302C1E90A0389
:103E200013040863C1E90D03C86302230864012178
:103E3000CDE900100F210490CDE90210CDE9060371
:103E4000CDE9080105906946CDE90A020C9007AA60
:103E50000D900348FEF740FF0FB000BD0040005238
:103E60007C020024044100522DE9F05FFE4CFFF774
:103E70005DFF641EFDD2FFF7BDFFFC4C40F2231036
:103E80006080002001F0CAFB01466080F8A002F0CB
:103E90002BFE60884FF4807541F2906740F227292D
:103EA000A0F5134140F23F1625397DD0A0F513410E
:103EB0002839FAD0A0F503412539F6D0A0F51341F1
:103EC00040F2077B31394FF401786ED0A0F51341F1
:103ED00020396BD0B0F5134FFBD0A0F5194140F25B
:103EE000055719397ED0A0F5A851053901D0B8423F
:103EF00079D1092020700021072001F043FC3220F5
:103F0000FCF79CFE12204FF48E7101F03BFC012166
:103F1000A42001F037FC0F21082001F033FC082118
:103F20000A2001F02FFC08210D2001F02BFC30208D
:103F30005B46594601F026FC0721312001F022FCA6
:103F4000322040F2036101F01DFC4FF4E0643320A5
:103F5000214601F017FC342040F2022101F012FC4E
:103F60000221352001F00EFC362041F60F7101F0E0
:103F700009FC3720194601F005FC0021382001F02A
:103F800001FC0021392001F0FDFB3A20194601F027
:103F9000F9FB00213B2001F0F5FB07213C2001F05B
:103FA000F1FB00213D2002E0B3E092E1FEE201F0EE
:103FB000E9FB3220FCF742FE0121072001F0E2FB81
:103FC0000121172001F0DEFB3220FCF737FE102024
:103FD0004FF4BD5101F0D6FB112040F2172101F042
:103FE000D1FB01E05BE287E312204FF48F7101F017
:103FF000C9FB13204FF4706101F0C4FB00212A209B
:1040000001F0C0FB0A21292001F0BCFB12204FF473
:104010009F7101F0B7FB0021502001F0B3FBEF21AD
:10402000512001F0AFFB0021522001F0ABFB5320E7
:10403000314601F0A7FB60204FF41C5101F0A2FBB8
:104040000121612001F09EFB00216A2001F09AFB12
:104050000021802001F096FB0021812001F092FBDD
:104060000021822001F08EFB0021832001F08AFBD9
:104070000021842001F086FB0021852001F082FBD5
:104080001321902001F07EFB92204FF4407101F04B
:1040900079FB0521932001F075FB0021952001F0AB
:1040A00071FB0021972001F06DFB0021982001F0A9
:1040B00069FB0120294601F065FB0220214601F041
:1040C00061FB032041F2300101F05CFB0021042080
:1040D00001F058FB00210C2001F054FB00210F20BF
:1040E00001F050FB0021202001F04CFB0021212099
:1040F00001F048FB2121072001F044FBC820FCF718
:104100009DFD6121072001F03DFBC820FCF796FDD5
:10411000FEE3012047F6F0012070E52001F032FBBC
:104120000120294601F02EFB02204FF4E06101F04E
:1041300029FB032041F2300101F024FB002104207F
:1041400001F020FB082040F2022101F01BFB0021BE
:10415000092001F017FB00210A2001F013FB0021C8
:104160000C2001F00FFB00210D2001F00BFB0021C2
:104170000F2001F007FB0021102001F003FB0721B5
:10418000112001F0FFFA0021122001F0FBFA0021BA
:10419000132001F0F7FA0021072001F0F3FA1020B4
:1041A000394601F0EFFA1120494601F0EBFA9D2162
:1041B000122001F0E7FA13204FF4C85101F0E2FA9F
:1041C0002521292001F0DEFA0D212B2001F0DAFA59
:1041D0000721302001F0D6FA312040F2033101F0FE
:1041E000D1FA0321322001F0CDFA352040F2062128
:1041F00001F0C8FA0821362001F0C4FA372040F255
:10420000064101F0BFFA38204FF4417101F0BAFACB
:104210000721392001F0B6FA3C2040F2026101F09A
:10422000B1FA08213D2001F0ADFA0021502001F043
:10423000A9FAEF21512001F0A5FA0021522001F046
:10424000A1FA5320314601F09DFA60204FF4274136
:1042500001F098FA0121612001F094FA00216A200E
:1042600001F090FA00210BE0FFFF1F000002002484
:10427000446576696365436F64652025780D0A009F
:10428000802001F07FFA0021812001F07BFA0021DB
:10429000822001F077FA0021832001F073FA0021D7
:1042A000842001F06FFA0021852001F06BFA1021C3
:1042B000902001F067FA92204FF4C06101F062FA99
:1042C000072040F2331101F05DFA2221002001F0B5
:1042D0009EB9032041F214012070E72001F052FA48
:1042E0000120294601F04EFA02204FF4007101F03E
:1042F00049FA032041F2300101F044FA082040F26B
:10430000022101F03FFA0021092001F03BFA0021CF
:104310000A2001F037FA00210C2001F033FA0021C5
:104320000D2001F02FFA00210F2001F02BFA0021BF
:10433000102001F027FA0721112001F023FA0021B3
:10434000122001F01FFA0021132001F01BFAC820EF
:10435000FCF774FC1020394601F014FA112049468C
:1043600001F010FA3220FCF769FC0C21122001F058
:1043700009FA3220FCF762FC13204FF4006101F0CF
:1043800001FA1121292001F0FDF90B212B2001F068
:10439000F9F93220FCF752FC0021202001F0F2F95B
:1043A0000021212001F0EEF90021302001F0EAF98E
:1043B0004FF483733120194601F0E4F900213220D3
:1043C00001F0E0F93520414601F0DCF9362041F2F8
:1043D0000A6101F0D7F937205C46594601F0D2F95D
:1043E0003820194601F0CEF93920214601F0CAF9EA
:1043F0003C2040F2024101F0C5F93D2040F60F415A
:1044000001F0C0F90021502001F0BCF9EF2151204A
:1044100001F0B8F90021522001F0B4F953203146DF
:1044200001F0B0F960204FF41C5101F0ABF901210B
:10443000612001F0A7F900216A2001F0A3F9002111
:10444000802001F09FF90021812001F09BF90021DB
:10445000822001F097F90021832001F093F90021D7
:10446000842001F08FF90021852001F08BF91021C3
:10447000902001F087F992204FF4C06101F082F999
:104480002121072001F07EF93220FCF7D7FB6121C2
:10449000072001F077F93220FCF7D0FBFBE30D2079
:1044A00020700621282001F06DF90121002001F083
:1044B00069F90021102001F065F9012047F2EF2190
:1044C00001F060F902204FF4C06101F05BF90320B4
:1044D00046F6382101F056F9112046F6740101F034
:1044E00051F900210F2001F04DF90B2045F2083160
:1044F00001F048F903210C2001F044F90A210D20B4
:1045000001F040F90E204FF4385101F03BF9BE2183
:104510001E2001F037F925204FF4004101F032F957
:1045200026204FF4F04101F02DF97821272001F0E9
:1045300029F900214E2001F025F900214F2001F03A
:1045400021F9122040F6D90101F01CF90021302098
:1045500001F018F931204FF4827101F013F9322083
:10456000294601F00FF940F205333320194601F0D6
:1045700009F93420394601F005F93520194601F0D2
:1045800001F93620594601F0FDF837204FF440710B
:1045900001F0F8F83A204FF4905101F0F3F83B2085
:1045A0004FF4006101F0EEF83321A3E00020207009
:1045B000014601F0E7F80120294601F0E3F8022066
:1045C0004FF4E06101F0DEF8032041F2180101F040
:1045D000D9F80021042001F0D5F8082040F202218A
:1045E00001F0D0F80021092001F0CCF800210A20C8
:1045F00001F0C8F801210C2001F0C4F800210D20C1
:1046000001F0C0F800210F2001F0BCF86420FCF795
:1046100015FB072040F2011101F0B4F86420FCF70B
:104620000DFB10204FF4865101F0ACF8072111204A
:1046300001F0A8F84FF488731220194601F0A2F88F
:1046400013204FF4306101F09DF80021292001F082
:1046500099F82B2044F2100101F094F80021502029
:1046600001F090F8EF21512001F08CF80021522048
:1046700001F088F85320314601F084F860204FF4AF
:104680001C5101F07FF80121612001F07BF800212D
:104690006A2001F077F80021802001F073F80021F2
:1046A000812001F06FF80021822001F06BF80021D9
:1046B000832001F067F80021842001F063F80021D5
:1046C000852001F05FF81021902001F05BF80021B7
:1046D000922001F057F80121932001F053F8952022
:1046E000194601F04FF80021972001F04BF8002106
:1046F0009820CBE20720EAE5A0F5094140F20259F3
:10470000893940F2023A2FD0A0F5094199397CD07D
:10471000A0F5A84140F20723083977D0A0F58A41D7
:10472000313974D0A0F58A41353971D0472870D01D
:10473000A0F5EE4183396DD040F223106080D32084
:1047400000F06CFFFE4D28882888298841EA002067
:1047500081B26180AFF2E84002F0C6F96088A0F54E
:10476000134141397DD0FCE3052020700121002058
:1047700001F008F83220FCF761FA03204AF6A401A0
:1047800001F000F83220FCF759FA00210C2000F06B
:10479000F9FF3220FCF752FA0D2040F60C0100F030
:1047A000F1FF3220FCF74AFA0E204FF42C5100F0B2
:1047B000E9FF3220FCF742FAB0211E2000F0E2FFB0
:1047C0003220FCF73BFA012042F63F3100F0DAFFDD
:1047D0003220FCF733FA02204FF4C06100F0D2FF20
:1047E0003220FCF72BFA0021102000F0CBFF322002
:1047F000FCF724FA112046F2700100F0C3FF3220CA
:10480000FCF71CFA0021052005E0DFE0A0E143E20F
:10481000E9E2FDE38EE300F0B5FF3220FCF70EFA8B
:104820000021062000F0AEFF3220FCF707FA162028
:104830004EF61C7100F0A6FF3220FCF7FFF90321B1
:10484000172000F09FFF3220FCF7F8F9072040F214
:10485000331100F097FF3220FCF7F0F900210B2014
:1048600000E0FDE300F08EFF3220FCF7E7F90021C5
:104870000F2000F087FF3220FCF7E0F900214120F3
:1048800000F080FF3220FCF7D9F90021422000F02F
:1048900079FF3220FCF7D2F90021482000F072FFA6
:1048A0003220FCF7CBF94920314600F06BFF322073
:1048B000FCF7C4F900214A2000F064FF3220FCF725
:1048C000BDF900214B2000F05DFF3220FCF7B6F966
:1048D00044204FF46F4100F055FF3220FCF7AEF951
:1048E0000021452000F04EFF3220FCF7A7F94620BA
:1048F000314600F047FF3220FCF7A0F9302059463E
:1049000000F040FF3220FCF799F93120414600E0E9
:10491000BEE100F037FF3220FCF790F9322041462B
:1049200000F030FF3220FCF789F933204C4649462D
:1049300000F028FF3220FCF781F9342040F20751C3
:1049400000F020FF3220FCF779F93520414600F0D5
:1049500019FF3220FCF772F93620414600F012FFB1
:104960003220FCF76BF93720214600F00BFF322094
:10497000FCF764F93A205446514600F003FF322018
:10498000FCF75CF93B20214600F0FCFE3220FCF7EE
:1049900055F90021232000F0F5FE3220FCF74EF9F6
:1049A0000021242000F0EEFE3220FCF747F92520FC
:1049B0004FF4004100F0E6FE3220FCF73FF9002101
:1049C0004F2000F0DFFE00214E2080E40420207004
:1049D0000621282000F0D6FE0121002000F0D2FEA2
:1049E00003204AF6A46100F0CDFE04210C2000F063
:1049F000C9FE0C210D2000F0C5FE0E204FF4205101
:104A000000F0C0FEB5211E2000F0BCFE012043F6E0
:104A10003F3100F0B7FE02204FF4C06100F0B2FE5B
:104A20000021102000F0AEFE112046F6300100F00B
:104A3000A9FE0021052000F0A5FE0021062000F0BF
:104A4000A1FE16204EF61C7100F09CFE33210720BB
:104A500000F098FE00210B2000F094FE00210F20B2
:104A600000F090FE0021412000F08CFE0021422049
:104A700000F088FE0021482000F084FE49203146E5
:104A800000F080FE00214A2000F07CFE00214B2037
:104A900000F078FE44204FF46F4100F073FE0021D7
:104AA000452000F06FFE4620314600F06BFE0021ED
:104AB0004E2000F067FE00214F2000F063FE302002
:104AC000594600F05FFE312040F2022100F05AFE0C
:104AD0003220414600F056FE33204B46494600F056
:104AE00051FE342040F2075100F04CFE3520414683
:104AF00000F048FE3620414600F044FE37201946BB
:104B000000F040FE3A205346514600F03BFE3B2069
:104B1000194600F037FE0021232000F033FE00216B
:104B2000242000F02FFE25204FF4004100F02AFE43
:104B300026204FF4E04100F025FE4BF2EB0101E0AE
:104B40000008006F202000F01DFE7C212720D2E508
:104B5000082029462070012000F014FE02204FF4A6
:104B6000E06100F00FFE032041F2300100F00AFE88
:104B70000021042000F006FE0820194600F002FE85
:104B80000021092000F0FEFD00210A2000F0FAFDBE
:104B900000210C2000F0F6FD00210D2000F0F2FDB8
:104BA00000210F2000F0EEFD3220FCF747F807202F
:104BB00040F2011100F0E6FD3220FCF73FF8102032
:104BC00041F2B06100F0DEFD0121112000F0DAFDBC
:104BD0000121172000F0D6FD12204FF49C7100F047
:104BE000D1FD13204FF4006100F0CCFD09212920F4
:104BF00000F0C8FD09212A2000F0C4FD0021A420F6
:104C000000F0C0FD0021502000F0BCFDEF2151203C
:104C100000F0B8FD0021522000F0B4FD53203146D1
:104C200000F0B0FD60204FF41C5100F0ABFD0321FB
:104C3000612000F0A7FD00216A2000F0A3FD002103
:104C4000802000F09FFD0021812000F09BFD0021CD
:104C5000822000F097FD0021832000F093FD0021C9
:104C6000842000F08FFD0021852000F08BFD1321B2
:104C7000902000F087FD0021922000F083FD0321A9
:104C8000932000F07FFD95204FF4887100F07AFDAD
:104C900040F273112EE501E207202070012100206F
:104CA00000F070FD10204FF4C56100F06BFD06218F
:104CB000122000F067FD132040F6322100F062FD63
:104CC0004021112000F05EFD5021152000F05AFD1A
:104CD0001621122000F056FD3220FBF7AFFF102006
:104CE00045F2606100F04EFD3220FBF7A7FF132074
:104CF00042F64E2100F046FD0120294600F042FD1B
:104D000002204FF4407100F03DFD032041F23001DC
:104D100000F038FD082040F2022100F033FD0021B0
:104D20000A2000F02FFD0021302000F02BFD312063
:104D300040F2024100F026FD32204FF4837100F072
:104D400021FD33204FF4E06100F01CFD34204FF4CE
:104D5000827100F017FD352040F2013100F012FDA4
:104D60003620594600F00EFD372040F2053100F0A4
:104D700009FD38204FF4027100F004FD392040F69F
:104D80000B7100F0FFFC3220FBF758FF022141209D
:104D900000F0F8FC60204FF41C5100F0F3FC0121FE
:104DA000612000F0EFFC902040F2191100F0EAFCC5
:104DB00092204FF4857100F0E5FC0421932000F06F
:104DC000E1FCA020294600F0DDFC3220FBF736FF95
:104DD000072040F2331100F0D5FC3220FBF72EFF04
:104DE0000021A0203CE20C2020703021152000F092
:104DF000C9FC10219A2000F0C5FC2021112000F0F0
:104E0000C1FC102043F2284100F0BCFC022112201A
:104E100000F0B8FC132041F2380100F0B3FC282068
:104E2000FBF70CFF1221084600F0ACFC2820FBF732
:104E300005FF102043F2204100F0A4FC132043F2B0
:104E4000450100F09FFC4620FBF7F8FE00213020D2
:104E500000F098FC312040F2024100F093FC322037
:104E600040F2073100F08EFC33204FF4417100F026
:104E700089FC0421342000F085FC352040F20141FA
:104E800000F080FC3620594600F07CFC372040F2D0
:104E9000053100F077FC4FF4C2633820194600F06A
:104EA00071FC3920194600F06DFC0120294600F004
:104EB00069FC02204FF4407100F064FC032041F2D1
:104EC000300100F05FFC082040F6080100F05AFCB9
:104ED00008210A2000F056FC60204FF41C5100F01D
:104EE00051FC0121612000F04DFC90204FF49F7196
:104EF00000F048FC9220294600F044FC932029460B
:104F000000F040FCA0204FF4405100F03BFC102189
:104F1000A32000F037FC0121072000F033FC212101
:104F2000072000F02FFC2321072000F02BFC332169
:104F30000720B1E0062020700121FF2000F022FCB4
:104F40000821F32000F01EFC0120294600F01AFC85
:104F500002204FF4E06100F015FC032041F2300123
:104F600000E035E200F00EFC0820514600F00AFC9B
:104F70000820194600F006FC0021092000F002FC80
:104F800000210A2000F0FEFB0021102000F0FAFBB7
:104F90000521112000F0F6FB0021122000F0F2FBA9
:104FA0000021132000F0EEFB3220FBF747FE10201B
:104FB00041F2B02100F0E6FB3220FBF73FFE072173
:104FC000112000F0DFFB3220FBF738FE8B2112208E
:104FD00000F0D8FB3220FBF731FE13204FF4B8511C
:104FE00000F0D0FB3220FBF729FE2221292000F01F
:104FF000C9FB0021302000F0C5FB3120594600F0EC
:10500000C1FB3220394600F0BDFB40F2071100E041
:1050100047E0352000F0B6FB0821362000F0B2FB57
:105020000021372000F0AEFB40F202233820194661
:1050300000F0A8FB39204FF4837100F0A3FB3C2063
:10504000194600F09FFB3D204FF4816100F09AFB70
:105050003220FBF7F3FD0021502000F093FB00E02D
:10506000FFE0EF21512000F08DFB0021522000F0E5
:1050700089FB5320314600F085FB60204FF4274127
:1050800000F080FB0121612000F07CFB33219020A7
:1050900000F078FB0B212B2000F074FB40F2331161
:1050A000F8E50A2020700021EA2000F06BFB2021A7
:1050B000EB2000F067FB0C21EC2000F063FBC42127
:1050C000ED2000F05FFB4021E82000F05BFB382181
:1050D000E92000F057FB0121F12000F053FB1021E3
:1050E000F22000F04FFBA321272000F04BFB012111
:1050F000402000F047FB0021412000F043FB00214D
:10510000422000F03FFB1021432000F03BFB0E212A
:10511000442000F037FB2421452000F033FB04211C
:10512000462000F02FFB5021472000F02BFB0221EE
:10513000482000F027FB1321492000F023FB192110
:105140004A2000F01FFB19214B2000F01BFB162109
:105150004C2000F017FB1B21502000F013FB3121E5
:10516000512000F00FFB2F21522000F00BFB3F21BC
:10517000532000F007FB3F21542000F003FB3E21A9
:10518000552000F0FFFA2F21562000F0FBFA7B217A
:10519000572000F0F7FA0921582000F0F3FA062111
:1051A000592000F0EFFA06215A2000F0EBFA0C210A
:1051B0005B2000F0E7FA1D215C2000F0E3FACC212F
:1051C0005D2000F0DFFA18211B2000F0DBFA01213E
:1051D0001A2000F0D7FA1521242000F0D3FA50212C
:1051E000252000F0CFFA8B21232000F0CBFA3621C6
:1051F000182000F0C7FA0121192000F0C3FA00219D
:10520000012000F0BFFA88211F2000F0BBFA3220F5
:10521000FBF714FD80211F2000F0B4FA3220FBF7C9
:105220000DFD90211F2000F0ADFA3220FBF706FDA6
:10523000D0211F2000F0A6FA3220FBF7FFFC052149
:10524000172000F09FFA0021362000F09BFA382149
:10525000282000F097FA3220FBF7F0FC3C212820B0
:10526000D5E14FF0DE460E202070CF2030800020A8
:105270002880C120288030202880ED2030806420C4
:105280002880032028801220288081202880E82080
:10529000308085202880102028807A202880CB200C
:1052A0003080392028802C2028800020288034203D
:1052B000288002202880F720308020202880EA20C3
:1052C0003080002028802880C02030801B2028804B
:1052D000C120308001202880C520308030202880E7
:1052E0002880C7203080B720288036203080482092
:1052F00028803A20308055202880B120308000203E
:1053000028801A202880B62030800A202880A220F9
:105310002880F22030800020288026203080012044
:105320002880E02030800F2028802A202880282014
:105330002880082028800E202880082028805420DB
:105340002880A9202880432028800A2028800F2038
:10535000288000202880288028802880E120308034
:1053600000202880152028801720288007202880EA
:1053700011202880062028802B2028805620288075
:105380003C20288005202880102028800F2028809D
:105390003F20288028800F2028802B20308000206C
:1053A00028802880012028803F2028802A203080E3
:1053B0000020288028802880EF202880112030803D
:1053C0007820FBF73BFC29203080002000F02EF9EC
:1053D000608847287ED10B2020700821422000F0F1
:1053E000D1F9B421462000F0CDF94321472000F047
:1053F000C9F91321482000F0C5F94721492000F0E0
:10540000C1F914214A2000F0BDF936214B2000F0EB
:10541000B9F903214C2000F0B5F946214D2000F0E8
:10542000B1F905214E2000F0ADF910214F2000F018
:10543000A9F90821502000F0A5F90A21512000F017
:10544000A1F90021022000F09DF90021032000F0C5
:1054500099F90021042000F095F9EF21052000F0D2
:1054600091F90021062000F08DF90021072000F0BD
:1054700089F90121082000F085F93F21092000F079
:1054800081F90A20FBF7DAFB0621012000F07AF906
:10549000C821162000F076F99521232000F072F93A
:1054A0009521242000F06EF9FF21252000F06AF9F3
:1054B0000221272000F066F90221282000F062F97D
:1054C0000221292000F05EF902212A2000F05AF979
:1054D000022100E09DE02C2000F054F902212D2053
:1054E00000F050F901213A2000F04CF901213B2055
:1054F00000F048F9F0213C2000F044F900213D2063
:1055000000F040F91420FBF799FB3821352000F01A
:1055100039F97821362000F035F938213E2000F0A5
:1055200031F90F21402000F02DF9F021412000F049
:1055300029F90021382000F025F94921192000F02F
:1055400021F90A21932000F01DF90A20FBF776FBD0
:105550002021084600F016F903211D2000F012F961
:1055600000211E2000F00EF909211F2000F00AF989
:105570005321442000F006F91021452000F002F9E3
:105580000A20FBF75BFB04211C2000F0FBF8142031
:10559000FBF754FB8021432000F0F4F80520FBF7D3
:1055A0004DFB0A211B2000F0EDF82820FBF746FBFD
:1055B00012211B2000F0E6F82820FBF73FFB7F219B
:1055C000902000F0DFF80421262000F0DBF82820EE
:1055D000FBF734FB2421262000F0D4F82C212620D0
:1055E00000F0D0F82820FBF729FB0821702000F0FC
:1055F000C9F83C21262000F0C5F80221572000F010
:10560000C1F80021552000F0BDF80021572000F01E
:10561000B9F8BDE8F05F3220FBF710BB4FF0DE4178
:1056200008800148008870470008006F114810B5D5
:1056300000780E281CD13620A82100F0A3F84FF0E6
:10564000DE422A20108000210B48018001800121C8
:1056500001803F2101802B211180002101800180E8
:105660000180EF21018005A0BDE8104001F03CBAA7
:1056700010BD0000000200240008006F7A0D0A002F
:10568000A0F23F100B46404210B584B21648007895
:10569000001F0A2806D2DFE800F00C0C05050505FE
:1056A000131305252020194600F06CF8212021460F
:1056B00014E04E20194600F065F84F2021460DE019
:1056C000190A022000F05EF80320194600F05AF88B
:1056D000210A062000F056F807202146BDE81040B8
:1056E00000F050B810BD00000002002470B5B0F505
:1056F000A07F14461FD2F0291DD20F4A12780E2A1D
:1057000007D0FFF7BDFF2146BDE87040222000F022
:1057100039B84FF0DE422A231380050A074B1D805B
:10572000C0B218802B201080080A1880C8B21880D8
:105730002C2010801C8070BD000200240008006F27
:105740002DE9F8430020FEF79FFA00240C4E0A27AB
:1057500025464FF6E0780095C4EB0410434600EB75
:105760004000821904EB840007EB800081B2052021
:10577000FBF7ECF9641C0B2CEDDBBDE8F8830000B3
:10578000100000244FF0DE42108001480180704775
:105790000008006F7FB5174C206820F4803020602F
:1057A000144D7035286820F001002860124801214E
:1057B00001901F208DF8080003208DF80B000020B9
:1057C0008DF80F008DF80E008DF800108DF80D107B
:1057D0008DF80A008DF801008DF809008DF80C0095
:1057E0006846FBF76BFD05202860206840F4803098
:1057F00020607FBD24ED00E0000001201C4830B592
:1058000087B0016841F002010160016801F0020106
:105810000591016841F010010160016801F010017B
:105820000591016841F02001016000686946114C52
:1058300000F02000059020200090012001900290AF
:10584000022003902046FBF70BFA0B4D40210091FC
:1058500069462846FBF704FA012220462021FBF77F
:10586000F3FA012228464021FBF7EEFA07B030BDDB
:10587000E0440258001002580014025810B586B0D7
:1058800014216846FAF77EFD0024059422A001F059
:105890002BF924482249C0E900147F218160FF21AF
:1058A000C0E903148461C4614461FCF7E3FF30B1D3
:1058B0001DA001F019F945211DA001F014F920A047
:1058C00001F012F98DF8004001228DF8014069467F
:1058D00014488DF8024003940494FDF767F918B159
:1058E000552113A001F0FFF804208DF814008DF865
:1058F000150018208DF8160019208DF817000122C8
:10590000084805A9FDF7E6F8002803D05E2108A0A5
:1059100001F0E9F806B010BD6675636B3000000059
:1059200000400058940400246675636B4552520091
:105930002E2E5C5372635C7274632E630000000051
:105940006675636B3100000070B5174C4FF48070C2
:10595000072101226062012084F820008007E061B5
:1059600045004FF07060C4E905500020E0702170E0
:1059700021466070A07060600C48FCF7DDFFA80D48
:105980006062182020700948012221466561FCF7F9
:10599000D3FF002229201146FBF700FDBDE870402F
:1059A0002920FBF7EDBC00005402002494040024DD
:1059B00010B58AB0002468461C2107940894099405
:1059C000FAF7E0FC1E481D490160C721C0E9011437
:1059D0004FF47A71C0E9031480218161FDF7A5FBC2
:1059E00018B1412117A001F07EF8154807A90794C6
:1059F0000994FDF7C7F918B1482112A001F073F816
:105A000060206946CDE900040D4800220294049408
:105A1000FDF7F7FA18B152210AA001F064F808481E
:105A200004226946FDF7EDFA18B1562105A001F0F0
:105A30005AF80348FDF7BCFA0AB010BD0004004054
:105A4000C80200242E2E5C5372635C74696D2E6351
:105A50000000000010480C220E4910B501604FF400
:105A6000E131416000218160C160C0E904128161BF
:105A7000C161016241628162C16201634163FDF7FC
:105A80008FFC002805D0BDE81040462103A001F09E
:105A90002AB810BD00100140540300242E2E5C5380
:105AA00072635C75736172742E63000010480C227F
:105AB0000E4910B501604FF4E13141600021816071
:105AC000C160C0E904128161C16101624162816209
:105AD000C16201634163FDF763FC002805D0BDE8A6
